{
  "_format": "hh-sol-artifact-1",
  "contractName": "NFTMarketplace",
  "sourceName": "contracts/NFTMarketplace.sol",
  "abi": [
    {
      "inputs": [],
      "stateMutability": "nonpayable",
      "type": "constructor"
    },
    {
      "inputs": [
        {
          "internalType": "address",
          "name": "sender",
          "type": "address"
        },
        {
          "internalType": "uint256",
          "name": "tokenId",
          "type": "uint256"
        },
        {
          "internalType": "address",
          "name": "owner",
          "type": "address"
        }
      ],
      "name": "ERC721IncorrectOwner",
      "type": "error"
    },
    {
      "inputs": [
        {
          "internalType": "address",
          "name": "operator",
          "type": "address"
        },
        {
          "internalType": "uint256",
          "name": "tokenId",
          "type": "uint256"
        }
      ],
      "name": "ERC721InsufficientApproval",
      "type": "error"
    },
    {
      "inputs": [
        {
          "internalType": "address",
          "name": "approver",
          "type": "address"
        }
      ],
      "name": "ERC721InvalidApprover",
      "type": "error"
    },
    {
      "inputs": [
        {
          "internalType": "address",
          "name": "operator",
          "type": "address"
        }
      ],
      "name": "ERC721InvalidOperator",
      "type": "error"
    },
    {
      "inputs": [
        {
          "internalType": "address",
          "name": "owner",
          "type": "address"
        }
      ],
      "name": "ERC721InvalidOwner",
      "type": "error"
    },
    {
      "inputs": [
        {
          "internalType": "address",
          "name": "receiver",
          "type": "address"
        }
      ],
      "name": "ERC721InvalidReceiver",
      "type": "error"
    },
    {
      "inputs": [
        {
          "internalType": "address",
          "name": "sender",
          "type": "address"
        }
      ],
      "name": "ERC721InvalidSender",
      "type": "error"
    },
    {
      "inputs": [
        {
          "internalType": "uint256",
          "name": "tokenId",
          "type": "uint256"
        }
      ],
      "name": "ERC721NonexistentToken",
      "type": "error"
    },
    {
      "inputs": [
        {
          "internalType": "address",
          "name": "owner",
          "type": "address"
        }
      ],
      "name": "OwnableInvalidOwner",
      "type": "error"
    },
    {
      "inputs": [
        {
          "internalType": "address",
          "name": "account",
          "type": "address"
        }
      ],
      "name": "OwnableUnauthorizedAccount",
      "type": "error"
    },
    {
      "inputs": [],
      "name": "ReentrancyGuardReentrantCall",
      "type": "error"
    },
    {
      "anonymous": false,
      "inputs": [
        {
          "indexed": true,
          "internalType": "address",
          "name": "owner",
          "type": "address"
        },
        {
          "indexed": true,
          "internalType": "address",
          "name": "approved",
          "type": "address"
        },
        {
          "indexed": true,
          "internalType": "uint256",
          "name": "tokenId",
          "type": "uint256"
        }
      ],
      "name": "Approval",
      "type": "event"
    },
    {
      "anonymous": false,
      "inputs": [
        {
          "indexed": true,
          "internalType": "address",
          "name": "owner",
          "type": "address"
        },
        {
          "indexed": true,
          "internalType": "address",
          "name": "operator",
          "type": "address"
        },
        {
          "indexed": false,
          "internalType": "bool",
          "name": "approved",
          "type": "bool"
        }
      ],
      "name": "ApprovalForAll",
      "type": "event"
    },
    {
      "anonymous": false,
      "inputs": [
        {
          "indexed": false,
          "internalType": "uint256",
          "name": "_fromTokenId",
          "type": "uint256"
        },
        {
          "indexed": false,
          "internalType": "uint256",
          "name": "_toTokenId",
          "type": "uint256"
        }
      ],
      "name": "BatchMetadataUpdate",
      "type": "event"
    },
    {
      "anonymous": false,
      "inputs": [
        {
          "indexed": true,
          "internalType": "uint256",
          "name": "tokenId",
          "type": "uint256"
        },
        {
          "indexed": true,
          "internalType": "address",
          "name": "seller",
          "type": "address"
        }
      ],
      "name": "ListingCancelled",
      "type": "event"
    },
    {
      "anonymous": false,
      "inputs": [
        {
          "indexed": false,
          "internalType": "uint256",
          "name": "newFee",
          "type": "uint256"
        }
      ],
      "name": "ListingFeeUpdated",
      "type": "event"
    },
    {
      "anonymous": false,
      "inputs": [
        {
          "indexed": false,
          "internalType": "uint256",
          "name": "_tokenId",
          "type": "uint256"
        }
      ],
      "name": "MetadataUpdate",
      "type": "event"
    },
    {
      "anonymous": false,
      "inputs": [
        {
          "indexed": true,
          "internalType": "uint256",
          "name": "tokenId",
          "type": "uint256"
        },
        {
          "indexed": true,
          "internalType": "address",
          "name": "seller",
          "type": "address"
        },
        {
          "indexed": false,
          "internalType": "uint256",
          "name": "price",
          "type": "uint256"
        }
      ],
      "name": "NFTListed",
      "type": "event"
    },
    {
      "anonymous": false,
      "inputs": [
        {
          "indexed": true,
          "internalType": "uint256",
          "name": "tokenId",
          "type": "uint256"
        },
        {
          "indexed": true,
          "internalType": "address",
          "name": "creator",
          "type": "address"
        },
        {
          "indexed": false,
          "internalType": "string",
          "name": "tokenURI",
          "type": "string"
        }
      ],
      "name": "NFTMinted",
      "type": "event"
    },
    {
      "anonymous": false,
      "inputs": [
        {
          "indexed": true,
          "internalType": "uint256",
          "name": "tokenId",
          "type": "uint256"
        },
        {
          "indexed": true,
          "internalType": "address",
          "name": "seller",
          "type": "address"
        },
        {
          "indexed": true,
          "internalType": "address",
          "name": "buyer",
          "type": "address"
        },
        {
          "indexed": false,
          "internalType": "uint256",
          "name": "price",
          "type": "uint256"
        }
      ],
      "name": "NFTSold",
      "type": "event"
    },
    {
      "anonymous": false,
      "inputs": [
        {
          "indexed": true,
          "internalType": "address",
          "name": "previousOwner",
          "type": "address"
        },
        {
          "indexed": true,
          "internalType": "address",
          "name": "newOwner",
          "type": "address"
        }
      ],
      "name": "OwnershipTransferred",
      "type": "event"
    },
    {
      "anonymous": false,
      "inputs": [
        {
          "indexed": false,
          "internalType": "uint256",
          "name": "newBps",
          "type": "uint256"
        }
      ],
      "name": "RoyaltyBpsUpdated",
      "type": "event"
    },
    {
      "anonymous": false,
      "inputs": [
        {
          "indexed": true,
          "internalType": "address",
          "name": "from",
          "type": "address"
        },
        {
          "indexed": true,
          "internalType": "address",
          "name": "to",
          "type": "address"
        },
        {
          "indexed": true,
          "internalType": "uint256",
          "name": "tokenId",
          "type": "uint256"
        }
      ],
      "name": "Transfer",
      "type": "event"
    },
    {
      "inputs": [
        {
          "internalType": "address",
          "name": "to",
          "type": "address"
        },
        {
          "internalType": "uint256",
          "name": "tokenId",
          "type": "uint256"
        }
      ],
      "name": "approve",
      "outputs": [],
      "stateMutability": "nonpayable",
      "type": "function"
    },
    {
      "inputs": [
        {
          "internalType": "address",
          "name": "owner",
          "type": "address"
        }
      ],
      "name": "balanceOf",
      "outputs": [
        {
          "internalType": "uint256",
          "name": "",
          "type": "uint256"
        }
      ],
      "stateMutability": "view",
      "type": "function"
    },
    {
      "inputs": [
        {
          "internalType": "uint256",
          "name": "tokenId",
          "type": "uint256"
        }
      ],
      "name": "buyNFT",
      "outputs": [],
      "stateMutability": "payable",
      "type": "function"
    },
    {
      "inputs": [
        {
          "internalType": "uint256",
          "name": "tokenId",
          "type": "uint256"
        }
      ],
      "name": "cancelListing",
      "outputs": [],
      "stateMutability": "nonpayable",
      "type": "function"
    },
    {
      "inputs": [
        {
          "internalType": "address",
          "name": "user",
          "type": "address"
        }
      ],
      "name": "fetchCreatedByMe",
      "outputs": [
        {
          "components": [
            {
              "internalType": "uint256",
              "name": "tokenId",
              "type": "uint256"
            },
            {
              "internalType": "address payable",
              "name": "seller",
              "type": "address"
            },
            {
              "internalType": "address payable",
              "name": "creator",
              "type": "address"
            },
            {
              "internalType": "uint256",
              "name": "price",
              "type": "uint256"
            },
            {
              "internalType": "bool",
              "name": "listed",
              "type": "bool"
            }
          ],
          "internalType": "struct NFTMarketplace.MarketItem[]",
          "name": "",
          "type": "tuple[]"
        }
      ],
      "stateMutability": "view",
      "type": "function"
    },
    {
      "inputs": [],
      "name": "fetchListedItems",
      "outputs": [
        {
          "components": [
            {
              "internalType": "uint256",
              "name": "tokenId",
              "type": "uint256"
            },
            {
              "internalType": "address payable",
              "name": "seller",
              "type": "address"
            },
            {
              "internalType": "address payable",
              "name": "creator",
              "type": "address"
            },
            {
              "internalType": "uint256",
              "name": "price",
              "type": "uint256"
            },
            {
              "internalType": "bool",
              "name": "listed",
              "type": "bool"
            }
          ],
          "internalType": "struct NFTMarketplace.MarketItem[]",
          "name": "",
          "type": "tuple[]"
        }
      ],
      "stateMutability": "view",
      "type": "function"
    },
    {
      "inputs": [
        {
          "internalType": "address",
          "name": "user",
          "type": "address"
        }
      ],
      "name": "fetchMyNFTs",
      "outputs": [
        {
          "components": [
            {
              "internalType": "uint256",
              "name": "tokenId",
              "type": "uint256"
            },
            {
              "internalType": "address payable",
              "name": "seller",
              "type": "address"
            },
            {
              "internalType": "address payable",
              "name": "creator",
              "type": "address"
            },
            {
              "internalType": "uint256",
              "name": "price",
              "type": "uint256"
            },
            {
              "internalType": "bool",
              "name": "listed",
              "type": "bool"
            }
          ],
          "internalType": "struct NFTMarketplace.MarketItem[]",
          "name": "",
          "type": "tuple[]"
        }
      ],
      "stateMutability": "view",
      "type": "function"
    },
    {
      "inputs": [
        {
          "internalType": "uint256",
          "name": "tokenId",
          "type": "uint256"
        }
      ],
      "name": "getApproved",
      "outputs": [
        {
          "internalType": "address",
          "name": "",
          "type": "address"
        }
      ],
      "stateMutability": "view",
      "type": "function"
    },
    {
      "inputs": [
        {
          "internalType": "address",
          "name": "owner",
          "type": "address"
        },
        {
          "internalType": "address",
          "name": "operator",
          "type": "address"
        }
      ],
      "name": "isApprovedForAll",
      "outputs": [
        {
          "internalType": "bool",
          "name": "",
          "type": "bool"
        }
      ],
      "stateMutability": "view",
      "type": "function"
    },
    {
      "inputs": [
        {
          "internalType": "uint256",
          "name": "tokenId",
          "type": "uint256"
        },
        {
          "internalType": "uint256",
          "name": "price",
          "type": "uint256"
        }
      ],
      "name": "listNFT",
      "outputs": [],
      "stateMutability": "payable",
      "type": "function"
    },
    {
      "inputs": [],
      "name": "listingFee",
      "outputs": [
        {
          "internalType": "uint256",
          "name": "",
          "type": "uint256"
        }
      ],
      "stateMutability": "view",
      "type": "function"
    },
    {
      "inputs": [
        {
          "internalType": "uint256",
          "name": "",
          "type": "uint256"
        }
      ],
      "name": "marketItems",
      "outputs": [
        {
          "internalType": "uint256",
          "name": "tokenId",
          "type": "uint256"
        },
        {
          "internalType": "address payable",
          "name": "seller",
          "type": "address"
        },
        {
          "internalType": "address payable",
          "name": "creator",
          "type": "address"
        },
        {
          "internalType": "uint256",
          "name": "price",
          "type": "uint256"
        },
        {
          "internalType": "bool",
          "name": "listed",
          "type": "bool"
        }
      ],
      "stateMutability": "view",
      "type": "function"
    },
    {
      "inputs": [
        {
          "internalType": "string",
          "name": "tokenURI",
          "type": "string"
        }
      ],
      "name": "mintNFT",
      "outputs": [
        {
          "internalType": "uint256",
          "name": "",
          "type": "uint256"
        }
      ],
      "stateMutability": "nonpayable",
      "type": "function"
    },
    {
      "inputs": [],
      "name": "name",
      "outputs": [
        {
          "internalType": "string",
          "name": "",
          "type": "string"
        }
      ],
      "stateMutability": "view",
      "type": "function"
    },
    {
      "inputs": [],
      "name": "owner",
      "outputs": [
        {
          "internalType": "address",
          "name": "",
          "type": "address"
        }
      ],
      "stateMutability": "view",
      "type": "function"
    },
    {
      "inputs": [
        {
          "internalType": "uint256",
          "name": "tokenId",
          "type": "uint256"
        }
      ],
      "name": "ownerOf",
      "outputs": [
        {
          "internalType": "address",
          "name": "",
          "type": "address"
        }
      ],
      "stateMutability": "view",
      "type": "function"
    },
    {
      "inputs": [],
      "name": "renounceOwnership",
      "outputs": [],
      "stateMutability": "nonpayable",
      "type": "function"
    },
    {
      "inputs": [],
      "name": "royaltyBps",
      "outputs": [
        {
          "internalType": "uint256",
          "name": "",
          "type": "uint256"
        }
      ],
      "stateMutability": "view",
      "type": "function"
    },
    {
      "inputs": [
        {
          "internalType": "address",
          "name": "from",
          "type": "address"
        },
        {
          "internalType": "address",
          "name": "to",
          "type": "address"
        },
        {
          "internalType": "uint256",
          "name": "tokenId",
          "type": "uint256"
        }
      ],
      "name": "safeTransferFrom",
      "outputs": [],
      "stateMutability": "nonpayable",
      "type": "function"
    },
    {
      "inputs": [
        {
          "internalType": "address",
          "name": "from",
          "type": "address"
        },
        {
          "internalType": "address",
          "name": "to",
          "type": "address"
        },
        {
          "internalType": "uint256",
          "name": "tokenId",
          "type": "uint256"
        },
        {
          "internalType": "bytes",
          "name": "data",
          "type": "bytes"
        }
      ],
      "name": "safeTransferFrom",
      "outputs": [],
      "stateMutability": "nonpayable",
      "type": "function"
    },
    {
      "inputs": [
        {
          "internalType": "address",
          "name": "operator",
          "type": "address"
        },
        {
          "internalType": "bool",
          "name": "approved",
          "type": "bool"
        }
      ],
      "name": "setApprovalForAll",
      "outputs": [],
      "stateMutability": "nonpayable",
      "type": "function"
    },
    {
      "inputs": [
        {
          "internalType": "uint256",
          "name": "_fee",
          "type": "uint256"
        }
      ],
      "name": "setListingFee",
      "outputs": [],
      "stateMutability": "nonpayable",
      "type": "function"
    },
    {
      "inputs": [
        {
          "internalType": "uint256",
          "name": "_bps",
          "type": "uint256"
        }
      ],
      "name": "setRoyaltyBps",
      "outputs": [],
      "stateMutability": "nonpayable",
      "type": "function"
    },
    {
      "inputs": [
        {
          "internalType": "bytes4",
          "name": "interfaceId",
          "type": "bytes4"
        }
      ],
      "name": "supportsInterface",
      "outputs": [
        {
          "internalType": "bool",
          "name": "",
          "type": "bool"
        }
      ],
      "stateMutability": "view",
      "type": "function"
    },
    {
      "inputs": [],
      "name": "symbol",
      "outputs": [
        {
          "internalType": "string",
          "name": "",
          "type": "string"
        }
      ],
      "stateMutability": "view",
      "type": "function"
    },
    {
      "inputs": [
        {
          "internalType": "uint256",
          "name": "tokenId",
          "type": "uint256"
        }
      ],
      "name": "tokenURI",
      "outputs": [
        {
          "internalType": "string",
          "name": "",
          "type": "string"
        }
      ],
      "stateMutability": "view",
      "type": "function"
    },
    {
      "inputs": [],
      "name": "totalMinted",
      "outputs": [
        {
          "internalType": "uint256",
          "name": "",
          "type": "uint256"
        }
      ],
      "stateMutability": "view",
      "type": "function"
    },
    {
      "inputs": [],
      "name": "totalSold",
      "outputs": [
        {
          "internalType": "uint256",
          "name": "",
          "type": "uint256"
        }
      ],
      "stateMutability": "view",
      "type": "function"
    },
    {
      "inputs": [
        {
          "internalType": "address",
          "name": "from",
          "type": "address"
        },
        {
          "internalType": "address",
          "name": "to",
          "type": "address"
        },
        {
          "internalType": "uint256",
          "name": "tokenId",
          "type": "uint256"
        }
      ],
      "name": "transferFrom",
      "outputs": [],
      "stateMutability": "nonpayable",
      "type": "function"
    },
    {
      "inputs": [
        {
          "internalType": "address",
          "name": "newOwner",
          "type": "address"
        }
      ],
      "name": "transferOwnership",
      "outputs": [],
      "stateMutability": "nonpayable",
      "type": "function"
    },
    {
      "inputs": [],
      "name": "withdrawFees",
      "outputs": [],
      "stateMutability": "nonpayable",
      "type": "function"
    }
  ],
  "bytecode": "0x60806040526608e1bc9bf04000600a5560fa600b5534801562000020575f80fd5b50336040518060400160405280600f81526020016e4e4654204d61726b6574706c61636560881b815250604051806040016040528060048152602001634e46544d60e01b815250815f9081620000779190620001dc565b506001620000868282620001dc565b5050506001600160a01b038116620000b757604051631e4fbdf760e01b81525f600482015260240160405180910390fd5b620000c281620000ed565b5060017f9b779b17422d0df92223018b32b4d1fa46e071723d6817e2486d003becc55f0055620002a8565b600780546001600160a01b038381166001600160a01b0319831681179093556040519116919082907f8be0079c531659141344cd1fd0a4f28419497f9722a3daafe3b4186f6b6457e0905f90a35050565b634e487b7160e01b5f52604160045260245ffd5b600181811c908216806200016757607f821691505b6020821081036200018657634e487b7160e01b5f52602260045260245ffd5b50919050565b601f821115620001d757805f5260205f20601f840160051c81016020851015620001b35750805b601f840160051c820191505b81811015620001d4575f8155600101620001bf565b50505b505050565b81516001600160401b03811115620001f857620001f86200013e565b620002108162000209845462000152565b846200018c565b602080601f83116001811462000246575f84156200022e5750858301515b5f19600386901b1c1916600185901b178555620002a0565b5f85815260208120601f198616915b82811015620002765788860151825594840194600190910190840162000255565b50858210156200029457878501515f19600388901b60f8161c191681555b505060018460011b0185555b505050505050565b61282c80620002b65f395ff3fe6080604052600436106101d0575f3560e01c806370a08231116100fd578063b88d4fde11610092578063e985e9c511610062578063e985e9c514610563578063f2fde38b14610582578063f904b2c6146105a1578063fb37e883146105c0575f80fd5b8063b88d4fde146104fc578063c63adb2b1461051b578063c87b56dd14610530578063cfd31e2c1461054f575f80fd5b806394383f14116100cd57806394383f14146104a257806395d89b41146104b5578063a22cb465146104c9578063a2309ff8146104e8575f80fd5b806370a082311461043e578063715018a61461045d5780638da5cb5b146104715780639106d7ba1461048e575f80fd5b806323b872dd1161017357806351ed82881161014357806351ed82881461035c57806351f28e141461036f5780636352211e146103fc5780636a1b7ecc1461041b575f80fd5b806323b872dd146102eb578063305a67a81461030a57806342842e0e14610329578063476343ee14610348575f80fd5b8063095ea7b3116101ae578063095ea7b31461026057806310afee1e14610281578063131dbd09146102ad5780631f72d831146102cc575f80fd5b806301ffc9a7146101d457806306fdde0314610208578063081812fc14610229575b5f80fd5b3480156101df575f80fd5b506101f36101ee3660046121c4565b6105df565b60405190151581526020015b60405180910390f35b348015610213575f80fd5b5061021c610609565b6040516101ff919061222c565b348015610234575f80fd5b5061024861024336600461223e565b610698565b6040516001600160a01b0390911681526020016101ff565b34801561026b575f80fd5b5061027f61027a366004612269565b6106bf565b005b34801561028c575f80fd5b506102a061029b366004612293565b6106ce565b6040516101ff91906122ae565b3480156102b8575f80fd5b5061027f6102c736600461223e565b610912565b3480156102d7575f80fd5b5061027f6102e636600461223e565b610956565b3480156102f6575f80fd5b5061027f610305366004612329565b6109dd565b348015610315575f80fd5b5061027f61032436600461223e565b610a66565b348015610334575f80fd5b5061027f610343366004612329565b610bb7565b348015610353575f80fd5b5061027f610bd6565b61027f61036a36600461223e565b610ce6565b34801561037a575f80fd5b506103c661038936600461223e565b600c6020525f90815260409020805460018201546002830154600384015460049094015492936001600160a01b0392831693929091169160ff1685565b604080519586526001600160a01b039485166020870152929093169184019190915260608301521515608082015260a0016101ff565b348015610407575f80fd5b5061024861041636600461223e565b61101a565b348015610426575f80fd5b50610430600a5481565b6040519081526020016101ff565b348015610449575f80fd5b50610430610458366004612293565b611024565b348015610468575f80fd5b5061027f611069565b34801561047c575f80fd5b506007546001600160a01b0316610248565b348015610499575f80fd5b50600954610430565b61027f6104b0366004612367565b61107a565b3480156104c0575f80fd5b5061021c611248565b3480156104d4575f80fd5b5061027f6104e3366004612387565b611257565b3480156104f3575f80fd5b50600854610430565b348015610507575f80fd5b5061027f6105163660046123d6565b611262565b348015610526575f80fd5b50610430600b5481565b34801561053b575f80fd5b5061021c61054a36600461223e565b61127a565b34801561055a575f80fd5b506102a06112fb565b34801561056e575f80fd5b506101f361057d3660046124af565b611480565b34801561058d575f80fd5b5061027f61059c366004612293565b6114ad565b3480156105ac575f80fd5b506102a06105bb366004612293565b6114e7565b3480156105cb575f80fd5b506104306105da3660046124db565b611676565b5f6001600160e01b03198216632483248360e11b14806106035750610603826117a5565b92915050565b60605f805461061790612547565b80601f016020809104026020016040519081016040528092919081815260200182805461064390612547565b801561068e5780601f106106655761010080835404028352916020019161068e565b820191905f5260205f20905b81548152906001019060200180831161067157829003601f168201915b5050505050905090565b5f6106a2826117f4565b505f828152600460205260409020546001600160a01b0316610603565b6106ca82823361182c565b5050565b6008546060905f60015b828111610777576040516331a9108f60e11b8152600481018290523090636352211e90602401602060405180830381865afa925050508015610737575060408051601f3d908101601f191682019092526107349181019061257f565b60015b1561076557856001600160a01b0316816001600160a01b031603610763578261075f816125ae565b9350505b505b8061076f816125ae565b9150506106d8565b505f8167ffffffffffffffff811115610792576107926123c2565b6040519080825280602002602001820160405280156107e957816020015b6040805160a0810182525f808252602080830182905292820181905260608201819052608082015282525f199092019101816107b05790505b5090505f60015b848111610907576040516331a9108f60e11b8152600481018290523090636352211e90602401602060405180830381865afa92505050801561084f575060408051601f3d908101601f1916820190925261084c9181019061257f565b60015b156108f557876001600160a01b0316816001600160a01b0316036108f3575f828152600c6020908152604091829020825160a0810184528154815260018201546001600160a01b03908116938201939093526002820154909216928201929092526003820154606082015260049091015460ff161515608082015284846108d5816125ae565b9550815181106108e7576108e76125c6565b60200260200101819052505b505b806108ff816125ae565b9150506107f0565b509095945050505050565b61091a611839565b600a8190556040518181527f5fb4654f1efe30c6141eaa6855ffcb27e0b361d899b05e21b1a4d0b3e71e14db906020015b60405180910390a150565b61095e611839565b6103e88111156109a85760405162461bcd60e51b815260206004820152601060248201526f0a4def2c2d8e8f240e8dede40d0d2ced60831b60448201526064015b60405180910390fd5b600b8190556040518181527f5601402930a1d1b5a0dff22c7cde3e019cee47a388253d2fb0361d8975f052f89060200161094b565b6001600160a01b038216610a0657604051633250574960e11b81525f600482015260240161099f565b5f610a12838333611866565b9050836001600160a01b0316816001600160a01b031614610a60576040516364283d7b60e01b81526001600160a01b038086166004830152602482018490528216604482015260640161099f565b50505050565b610a6e611958565b5f818152600c60205260409020600481015460ff16610abc5760405162461bcd60e51b815260206004820152600a602482015269139bdd081b1a5cdd195960b21b604482015260640161099f565b60018101546001600160a01b0316331480610af0575033610ae56007546001600160a01b031690565b6001600160a01b0316145b610b2d5760405162461bcd60e51b815260206004820152600e60248201526d139bdd08185d5d1a1bdc9a5cd95960921b604482015260640161099f565b60018101805460048301805460ff191690556001600160a01b031981169091555f60038301556001600160a01b0316610b67308285611973565b6040516001600160a01b0382169084907f8e25282255ab31897df2b0456bb993ac7f84d376861aefd84901d2d63a7428a2905f90a35050610bb460015f805160206127d783398151915255565b50565b610bd183838360405180602001604052805f815250611262565b505050565b610bde611839565b610be6611958565b4780610c2a5760405162461bcd60e51b81526020600482015260136024820152724e6f7468696e6720746f20776974686472617760681b604482015260640161099f565b5f610c3d6007546001600160a01b031690565b6001600160a01b0316826040515f6040518083038185875af1925050503d805f8114610c84576040519150601f19603f3d011682016040523d82523d5f602084013e610c89565b606091505b5050905080610ccc5760405162461bcd60e51b815260206004820152600f60248201526e151c985b9cd9995c8819985a5b1959608a1b604482015260640161099f565b5050610ce460015f805160206127d783398151915255565b565b610cee611958565b5f818152600c60205260409020600481015460ff16610d3c5760405162461bcd60e51b815260206004820152600a602482015269139bdd081b1a5cdd195960b21b604482015260640161099f565b80600301543414610d7d5760405162461bcd60e51b815260206004820152600b60248201526a57726f6e6720707269636560a81b604482015260640161099f565b60018101546001600160a01b03163303610dd95760405162461bcd60e51b815260206004820152601960248201527f53656c6c65722063616e6e6f7420627579206f776e204e465400000000000000604482015260640161099f565b6001810154600282015460038301546001600160a01b0392831692909116905f828414610e1e57612710600b5483610e1191906125da565b610e1b91906125f1565b90505b5f610e298284612610565b60048701805460ff191690556001870180546001600160a01b03191690555f600388018190556009805492935090610e60836125ae565b9190505550610e70303389611973565b5f856001600160a01b0316826040515f6040518083038185875af1925050503d805f8114610eb9576040519150601f19603f3d011682016040523d82523d5f602084013e610ebe565b606091505b5050905080610f085760405162461bcd60e51b815260206004820152601660248201527514d95b1b195c881d1c985b9cd9995c8819985a5b195960521b604482015260640161099f565b8215610faf575f856001600160a01b0316846040515f6040518083038185875af1925050503d805f8114610f57576040519150601f19603f3d011682016040523d82523d5f602084013e610f5c565b606091505b5050905080610fad5760405162461bcd60e51b815260206004820152601760248201527f526f79616c7479207472616e73666572206661696c6564000000000000000000604482015260640161099f565b505b336001600160a01b0316866001600160a01b0316897f8562eb94748e30bb0071e932744ce902b460c683474fcb3bfd567ffa16b1afb287604051610ff591815260200190565b60405180910390a450505050505050610bb460015f805160206127d783398151915255565b5f610603826117f4565b5f6001600160a01b03821661104e576040516322718ad960e21b81525f600482015260240161099f565b506001600160a01b03165f9081526003602052604090205490565b611071611839565b610ce45f611a20565b611082611958565b3361108c8361101a565b6001600160a01b0316146110d45760405162461bcd60e51b815260206004820152600f60248201526e2737ba103a37b5b2b71037bbb732b960891b604482015260640161099f565b5f81116111175760405162461bcd60e51b815260206004820152601160248201527005072696365206d757374206265203e203607c1b604482015260640161099f565b600a54341461115c5760405162461bcd60e51b815260206004820152601160248201527057726f6e67206c697374696e672066656560781b604482015260640161099f565b5f828152600c602052604090206004015460ff16156111ae5760405162461bcd60e51b815260206004820152600e60248201526d105b1c9958591e481b1a5cdd195960921b604482015260640161099f565b6111b93330846109dd565b5f828152600c602052604090819020600180820180546001600160a01b03191633908117909155600383018590556004909201805460ff19169091179055905183907f5f9c03de076f5063cd3ebcfe8ef7aa8af378e4b35a83c77ba9777e97083879a29061122a9085815260200190565b60405180910390a36106ca60015f805160206127d783398151915255565b60606001805461061790612547565b6106ca338383611a71565b61126d8484846109dd565b610a603385858585611b38565b6060611285826117f4565b505f61129b60408051602081019091525f815290565b90505f6112a784611c60565b905081515f036112b8579392505050565b8051156112ea5781816040516020016112d2929190612623565b60405160208183030381529060405292505050919050565b6112f384611cff565b949350505050565b6008546060905f60015b828111611345575f818152600c602052604090206004015460ff1615611333578161132f816125ae565b9250505b8061133d816125ae565b915050611305565b505f8167ffffffffffffffff811115611360576113606123c2565b6040519080825280602002602001820160405280156113b757816020015b6040805160a0810182525f808252602080830182905292820181905260608201819052608082015282525f1990920191018161137e5790505b5090505f60015b848111611476575f818152600c602052604090206004015460ff1615611464575f818152600c6020908152604091829020825160a0810184528154815260018201546001600160a01b03908116938201939093526002820154909216928201929092526003820154606082015260049091015460ff16151560808201528383611446816125ae565b945081518110611458576114586125c6565b60200260200101819052505b8061146e816125ae565b9150506113be565b5090949350505050565b6001600160a01b039182165f90815260056020908152604080832093909416825291909152205460ff1690565b6114b5611839565b6001600160a01b0381166114de57604051631e4fbdf760e01b81525f600482015260240161099f565b610bb481611a20565b6008546060905f60015b82811161153b575f818152600c60205260409020600201546001600160a01b038087169116036115295781611525816125ae565b9250505b80611533816125ae565b9150506114f1565b505f8167ffffffffffffffff811115611556576115566123c2565b6040519080825280602002602001820160405280156115ad57816020015b6040805160a0810182525f808252602080830182905292820181905260608201819052608082015282525f199092019101816115745790505b5090505f60015b848111610907575f818152600c60205260409020600201546001600160a01b03808916911603611664575f818152600c6020908152604091829020825160a0810184528154815260018201546001600160a01b03908116938201939093526002820154909216928201929092526003820154606082015260049091015460ff16151560808201528383611646816125ae565b945081518110611658576116586125c6565b60200260200101819052505b8061166e816125ae565b9150506115b4565b600880545f9182611686836125ae565b90915550506008546116983382611d70565b6116d78185858080601f0160208091040260200160405190810160405280939291908181526020018383808284375f92019190915250611d8992505050565b6040805160a0810182528281525f6020808301828152338486018181526060860185815260808701868152898752600c909552948790209551865591516001860180546001600160a01b03199081166001600160a01b0393841617909155925160028701805490941691161790915591516003840155516004909201805460ff191692151592909217909155905182907f06becd955c918828f6e985541acbf49cc842c9e9bd569fffc7698e721ef13575906117969088908890612651565b60405180910390a39392505050565b5f6001600160e01b031982166380ac58cd60e01b14806117d557506001600160e01b03198216635b5e139f60e01b145b8061060357506301ffc9a760e01b6001600160e01b0319831614610603565b5f818152600260205260408120546001600160a01b03168061060357604051637e27328960e01b81526004810184905260240161099f565b610bd18383836001611dd8565b6007546001600160a01b03163314610ce45760405163118cdaa760e01b815233600482015260240161099f565b5f828152600260205260408120546001600160a01b039081169083161561189257611892818486611edc565b6001600160a01b038116156118cc576118ad5f855f80611dd8565b6001600160a01b0381165f90815260036020526040902080545f190190555b6001600160a01b038516156118fa576001600160a01b0385165f908152600360205260409020805460010190555b5f8481526002602052604080822080546001600160a01b0319166001600160a01b0389811691821790925591518793918516917fddf252ad1be2c89b69c2b068fc378daa952ba7f163c4a11628f55a4df523b3ef91a4949350505050565b611960611f40565b60025f805160206127d783398151915255565b6001600160a01b03821661199c57604051633250574960e11b81525f600482015260240161099f565b5f6119a883835f611866565b90506001600160a01b0381166119d457604051637e27328960e01b81526004810183905260240161099f565b836001600160a01b0316816001600160a01b031614610a60576040516364283d7b60e01b81526001600160a01b038086166004830152602482018490528216604482015260640161099f565b600780546001600160a01b038381166001600160a01b0319831681179093556040519116919082907f8be0079c531659141344cd1fd0a4f28419497f9722a3daafe3b4186f6b6457e0905f90a35050565b6001600160a01b038316611a9a5760405163a9fbf51f60e01b81525f600482015260240161099f565b6001600160a01b038216611acc57604051630b61174360e31b81526001600160a01b038316600482015260240161099f565b6001600160a01b038381165f81815260056020908152604080832094871680845294825291829020805460ff191686151590811790915591519182527f17307eab39ab6107e8899845ad3d59bd9653f200f220920489ca2b5937696c31910160405180910390a3505050565b6001600160a01b0383163b15611c5957604051630a85bd0160e11b81526001600160a01b0384169063150b7a0290611b7a90889088908790879060040161267f565b6020604051808303815f875af1925050508015611bb4575060408051601f3d908101601f19168201909252611bb1918101906126bb565b60015b611c1b573d808015611be1576040519150601f19603f3d011682016040523d82523d5f602084013e611be6565b606091505b5080515f03611c1357604051633250574960e11b81526001600160a01b038516600482015260240161099f565b805160208201fd5b6001600160e01b03198116630a85bd0160e11b14611c5757604051633250574960e11b81526001600160a01b038516600482015260240161099f565b505b5050505050565b5f818152600660205260409020805460609190611c7c90612547565b80601f0160208091040260200160405190810160405280929190818152602001828054611ca890612547565b8015611cf35780601f10611cca57610100808354040283529160200191611cf3565b820191905f5260205f20905b815481529060010190602001808311611cd657829003601f168201915b50505050509050919050565b6060611d0a826117f4565b505f611d2060408051602081019091525f815290565b90505f815111611d3e5760405180602001604052805f815250611d69565b80611d4884611f6f565b604051602001611d59929190612623565b6040516020818303038152906040525b9392505050565b6106ca828260405180602001604052805f815250611fff565b5f828152600660205260409020611da0828261271a565b506040518281527ff8e1a15aba9398e019f0b49df1a4fde98ee17ae345cb5f6b5e2c27f5033e8ce79060200160405180910390a15050565b8080611dec57506001600160a01b03821615155b15611ead575f611dfb846117f4565b90506001600160a01b03831615801590611e275750826001600160a01b0316816001600160a01b031614155b8015611e3a5750611e388184611480565b155b15611e635760405163a9fbf51f60e01b81526001600160a01b038416600482015260240161099f565b8115611eab5783856001600160a01b0316826001600160a01b03167f8c5be1e5ebec7d5bd14f71427d1e84f3dd0314c0f7b2291e5b200ac8c7c3b92560405160405180910390a45b505b50505f90815260046020526040902080546001600160a01b0319166001600160a01b0392909216919091179055565b611ee7838383612016565b610bd1576001600160a01b038316611f1557604051637e27328960e01b81526004810182905260240161099f565b60405163177e802f60e01b81526001600160a01b03831660048201526024810182905260440161099f565b5f805160206127d783398151915254600203610ce457604051633ee5aeb560e01b815260040160405180910390fd5b60605f611f7b83612077565b60010190505f8167ffffffffffffffff811115611f9a57611f9a6123c2565b6040519080825280601f01601f191660200182016040528015611fc4576020820181803683370190505b5090508181016020015b5f19016f181899199a1a9b1b9c1cb0b131b232b360811b600a86061a8153600a8504945084611fce57509392505050565b612009838361214e565b610bd1335f858585611b38565b5f6001600160a01b038316158015906112f35750826001600160a01b0316846001600160a01b0316148061204f575061204f8484611480565b806112f35750505f908152600460205260409020546001600160a01b03908116911614919050565b5f8072184f03e93ff9f4daa797ed6e38ed64bf6a1f0160401b83106120b55772184f03e93ff9f4daa797ed6e38ed64bf6a1f0160401b830492506040015b6d04ee2d6d415b85acef810000000083106120e1576d04ee2d6d415b85acef8100000000830492506020015b662386f26fc1000083106120ff57662386f26fc10000830492506010015b6305f5e1008310612117576305f5e100830492506008015b612710831061212b57612710830492506004015b6064831061213d576064830492506002015b600a83106106035760010192915050565b6001600160a01b03821661217757604051633250574960e11b81525f600482015260240161099f565b5f61218383835f611866565b90506001600160a01b03811615610bd1576040516339e3563760e11b81525f600482015260240161099f565b6001600160e01b031981168114610bb4575f80fd5b5f602082840312156121d4575f80fd5b8135611d69816121af565b5f5b838110156121f95781810151838201526020016121e1565b50505f910152565b5f81518084526122188160208601602086016121df565b601f01601f19169290920160200192915050565b602081525f611d696020830184612201565b5f6020828403121561224e575f80fd5b5035919050565b6001600160a01b0381168114610bb4575f80fd5b5f806040838503121561227a575f80fd5b823561228581612255565b946020939093013593505050565b5f602082840312156122a3575f80fd5b8135611d6981612255565b602080825282518282018190525f919060409081850190868401855b8281101561231c57815180518552868101516001600160a01b03908116888701528682015116868601526060808201519086015260809081015115159085015260a090930192908501906001016122ca565b5091979650505050505050565b5f805f6060848603121561233b575f80fd5b833561234681612255565b9250602084013561235681612255565b929592945050506040919091013590565b5f8060408385031215612378575f80fd5b50508035926020909101359150565b5f8060408385031215612398575f80fd5b82356123a381612255565b9150602083013580151581146123b7575f80fd5b809150509250929050565b634e487b7160e01b5f52604160045260245ffd5b5f805f80608085870312156123e9575f80fd5b84356123f481612255565b9350602085013561240481612255565b925060408501359150606085013567ffffffffffffffff80821115612427575f80fd5b818701915087601f83011261243a575f80fd5b81358181111561244c5761244c6123c2565b604051601f8201601f19908116603f01168101908382118183101715612474576124746123c2565b816040528281528a602084870101111561248c575f80fd5b826020860160208301375f60208483010152809550505050505092959194509250565b5f80604083850312156124c0575f80fd5b82356124cb81612255565b915060208301356123b781612255565b5f80602083850312156124ec575f80fd5b823567ffffffffffffffff80821115612503575f80fd5b818501915085601f830112612516575f80fd5b813581811115612524575f80fd5b866020828501011115612535575f80fd5b60209290920196919550909350505050565b600181811c9082168061255b57607f821691505b60208210810361257957634e487b7160e01b5f52602260045260245ffd5b50919050565b5f6020828403121561258f575f80fd5b8151611d6981612255565b634e487b7160e01b5f52601160045260245ffd5b5f600182016125bf576125bf61259a565b5060010190565b634e487b7160e01b5f52603260045260245ffd5b80820281158282048414176106035761060361259a565b5f8261260b57634e487b7160e01b5f52601260045260245ffd5b500490565b818103818111156106035761060361259a565b5f83516126348184602088016121df565b8351908301906126488183602088016121df565b01949350505050565b60208152816020820152818360408301375f818301604090810191909152601f909201601f19160101919050565b6001600160a01b03858116825284166020820152604081018390526080606082018190525f906126b190830184612201565b9695505050505050565b5f602082840312156126cb575f80fd5b8151611d69816121af565b601f821115610bd157805f5260205f20601f840160051c810160208510156126fb5750805b601f840160051c820191505b81811015611c59575f8155600101612707565b815167ffffffffffffffff811115612734576127346123c2565b612748816127428454612547565b846126d6565b602080601f83116001811461277b575f84156127645750858301515b5f19600386901b1c1916600185901b178555611c57565b5f85815260208120601f198616915b828110156127a95788860151825594840194600190910190840161278a565b50858210156127c657878501515f19600388901b60f8161c191681555b5050505050600190811b0190555056fe9b779b17422d0df92223018b32b4d1fa46e071723d6817e2486d003becc55f00a2646970667358221220ca0342fd4dc2feb5993b609ae86308021e8a87699b2d7e4f748e5917299b4e5f64736f6c63430008180033",
  "linkReferences": {},
  "deployedLinkReferences": {}
}